{
  "contractName": "RegisterSU",
  "abi": [
    {
      "inputs": [],
      "name": "_sr",
      "outputs": [
        {
          "internalType": "address",
          "name": "",
          "type": "address"
        }
      ],
      "stateMutability": "view",
      "type": "function",
      "constant": true
    },
    {
      "inputs": [
        {
          "internalType": "uint256",
          "name": "",
          "type": "uint256"
        }
      ],
      "name": "courseList",
      "outputs": [
        {
          "internalType": "uint256",
          "name": "",
          "type": "uint256"
        }
      ],
      "stateMutability": "view",
      "type": "function",
      "constant": true
    },
    {
      "inputs": [
        {
          "internalType": "uint256",
          "name": "",
          "type": "uint256"
        }
      ],
      "name": "courses",
      "outputs": [
        {
          "internalType": "enum RegisterSU.CourseRegistrationStatus",
          "name": "_status",
          "type": "uint8"
        },
        {
          "internalType": "string",
          "name": "_courseCode",
          "type": "string"
        },
        {
          "internalType": "uint256",
          "name": "_courseMaxCapacity",
          "type": "uint256"
        },
        {
          "internalType": "uint256",
          "name": "_courseCapacity",
          "type": "uint256"
        }
      ],
      "stateMutability": "view",
      "type": "function",
      "constant": true
    },
    {
      "inputs": [],
      "name": "isSR",
      "outputs": [
        {
          "internalType": "bool",
          "name": "",
          "type": "bool"
        }
      ],
      "stateMutability": "view",
      "type": "function",
      "constant": true
    },
    {
      "inputs": [
        {
          "internalType": "uint256",
          "name": "",
          "type": "uint256"
        }
      ],
      "name": "myCourses",
      "outputs": [
        {
          "internalType": "uint256",
          "name": "",
          "type": "uint256"
        }
      ],
      "stateMutability": "view",
      "type": "function",
      "constant": true
    },
    {
      "inputs": [
        {
          "internalType": "uint256",
          "name": "_id",
          "type": "uint256"
        },
        {
          "internalType": "string",
          "name": "_courseCode",
          "type": "string"
        },
        {
          "internalType": "uint256",
          "name": "_courseMaxCapacity",
          "type": "uint256"
        }
      ],
      "name": "createCourse",
      "outputs": [],
      "stateMutability": "nonpayable",
      "type": "function"
    },
    {
      "inputs": [
        {
          "internalType": "uint256",
          "name": "_courseIndex",
          "type": "uint256"
        }
      ],
      "name": "openCourse",
      "outputs": [],
      "stateMutability": "nonpayable",
      "type": "function"
    },
    {
      "inputs": [
        {
          "internalType": "uint256",
          "name": "_courseIndex",
          "type": "uint256"
        }
      ],
      "name": "closeCourse",
      "outputs": [],
      "stateMutability": "nonpayable",
      "type": "function"
    },
    {
      "inputs": [
        {
          "internalType": "uint256",
          "name": "_courseIndex",
          "type": "uint256"
        }
      ],
      "name": "registerCourse",
      "outputs": [],
      "stateMutability": "nonpayable",
      "type": "function"
    },
    {
      "inputs": [
        {
          "internalType": "uint256",
          "name": "_courseIndex",
          "type": "uint256"
        }
      ],
      "name": "getCourseStudents",
      "outputs": [
        {
          "internalType": "address[]",
          "name": "",
          "type": "address[]"
        }
      ],
      "stateMutability": "view",
      "type": "function",
      "constant": true
    },
    {
      "inputs": [],
      "name": "getMyCourses",
      "outputs": [
        {
          "internalType": "uint256[]",
          "name": "",
          "type": "uint256[]"
        }
      ],
      "stateMutability": "nonpayable",
      "type": "function"
    }
  ],
  "bytecode": "0x6080604052336000806101000a81548173ffffffffffffffffffffffffffffffffffffffff021916908373ffffffffffffffffffffffffffffffffffffffff1602179055506114c2806100536000396000f3fe608060405234801561001057600080fd5b50600436106100a95760003560e01c806355f9b8d01161007157806355f9b8d01461015257806360a0bdda1461017057806360dd60e3146101a057806396f979d2146101d0578063b2582ee314610203578063d7237f021461021f576100a9565b80632cc59076146100ae57806345f98bec146100cc57806347ffc1ca146100e857806351175f9d1461010457806352b3c6de14610122575b600080fd5b6100b661023b565b6040516100c3919061115d565b60405180910390f35b6100e660048036036100e19190810190610d6b565b61029b565b005b61010260048036036100fd9190810190610d6b565b61039a565b005b61010c61056a565b6040516101199190611120565b60405180910390f35b61013c60048036036101379190810190610d6b565b61058f565b60405161014991906112a6565b60405180910390f35b61015a6105b0565b604051610167919061117f565b60405180910390f35b61018a60048036036101859190810190610d6b565b610607565b60405161019791906112a6565b60405180910390f35b6101ba60048036036101b59190810190610d6b565b610628565b6040516101c7919061113b565b60405180910390f35b6101ea60048036036101e59190810190610d6b565b610713565b6040516101fa949392919061119a565b60405180910390f35b61021d60048036036102189190810190610d6b565b6107e8565b005b61023960048036036102349190810190610d94565b6108e5565b005b6060610245610a4e565b600380548060200260200160405190810160405280929190818152602001828054801561029157602002820191906000526020600020905b81548152602001906001019080831161027d575b5050505050905090565b6102a36105b0565b6102e2576040517f08c379a00000000000000000000000000000000000000000000000000000000081526004016102d990611246565b60405180910390fd5b600060018111156102ef57fe5b6001600083815260200190815260200160002060000160009054906101000a900460ff16600181111561031e57fe5b141561035f576040517f08c379a000000000000000000000000000000000000000000000000000000000815260040161035690611206565b60405180910390fd5b60006001600083815260200190815260200160002060000160006101000a81548160ff0219169083600181111561039257fe5b021790555050565b6103a26105b0565b156103e2576040517f08c379a00000000000000000000000000000000000000000000000000000000081526004016103d990611286565b60405180910390fd5b6001808111156103ee57fe5b6001600083815260200190815260200160002060000160009054906101000a900460ff16600181111561041d57fe5b141561045e576040517f08c379a000000000000000000000000000000000000000000000000000000000815260040161045590611226565b60405180910390fd5b60016000828152602001908152602001600020600201546001600083815260200190815260200160002060030154106104cc576040517f08c379a00000000000000000000000000000000000000000000000000000000081526004016104c3906111e6565b60405180910390fd5b60016000828152602001908152602001600020600401339080600181540180825580915050600190039060005260206000200160009091909190916101000a81548173ffffffffffffffffffffffffffffffffffffffff021916908373ffffffffffffffffffffffffffffffffffffffff16021790555060018060008381526020019081526020016000206003016000828254019250508190555050565b6000809054906101000a900473ffffffffffffffffffffffffffffffffffffffff1681565b6003818154811061059c57fe5b906000526020600020016000915090505481565b60008060009054906101000a900473ffffffffffffffffffffffffffffffffffffffff1673ffffffffffffffffffffffffffffffffffffffff163373ffffffffffffffffffffffffffffffffffffffff1614905090565b6002818154811061061457fe5b906000526020600020016000915090505481565b60606106326105b0565b610671576040517f08c379a000000000000000000000000000000000000000000000000000000000815260040161066890611246565b60405180910390fd5b6001600083815260200190815260200160002060040180548060200260200160405190810160405280929190818152602001828054801561070757602002820191906000526020600020905b8160009054906101000a900473ffffffffffffffffffffffffffffffffffffffff1673ffffffffffffffffffffffffffffffffffffffff16815260200190600101908083116106bd575b50505050509050919050565b60016020528060005260406000206000915090508060000160009054906101000a900460ff1690806001018054600181600116156101000203166002900480601f0160208091040260200160405190810160405280929190818152602001828054600181600116156101000203166002900480156107d25780601f106107a7576101008083540402835291602001916107d2565b820191906000526020600020905b8154815290600101906020018083116107b557829003601f168201915b5050505050908060020154908060030154905084565b6107f06105b0565b61082f576040517f08c379a000000000000000000000000000000000000000000000000000000000815260040161082690611246565b60405180910390fd5b60018081111561083b57fe5b6001600083815260200190815260200160002060000160009054906101000a900460ff16600181111561086a57fe5b14156108ab576040517f08c379a00000000000000000000000000000000000000000000000000000000081526004016108a290611266565b60405180910390fd5b600180600083815260200190815260200160002060000160006101000a81548160ff021916908360018111156108dd57fe5b021790555050565b6108ed6105b0565b61092c576040517f08c379a000000000000000000000000000000000000000000000000000000000815260040161092390611246565b60405180910390fd5b81600160008581526020019081526020016000206001019080519060200190610956929190610b90565b5080600160008581526020019081526020016000206002018190555060006001600085815260200190815260200160002060030181905550600180600085815260200190815260200160002060000160006101000a81548160ff021916908360018111156109c057fe5b021790555060006040519080825280602002602001820160405280156109f55781602001602082028038833980820191505090505b50600160008581526020019081526020016000206004019080519060200190610a1f929190610c10565b506002839080600181540180825580915050600190039060005260206000200160009091909190915055505050565b60008090505b600280549050811015610b8d5760008090505b6001600060028481548110610a7857fe5b9060005260206000200154815260200190815260200160002060040180549050811015610b81573373ffffffffffffffffffffffffffffffffffffffff166001600060028581548110610ac757fe5b906000526020600020015481526020019081526020016000206004018281548110610aee57fe5b9060005260206000200160009054906101000a900473ffffffffffffffffffffffffffffffffffffffff1673ffffffffffffffffffffffffffffffffffffffff161415610b7657600360028381548110610b4457fe5b906000526020600020015490806001815401808255809150506001900390600052602060002001600090919091909150555b600181019050610a67565b50600181019050610a54565b50565b828054600181600116156101000203166002900490600052602060002090601f016020900481019282601f10610bd157805160ff1916838001178555610bff565b82800160010185558215610bff579182015b82811115610bfe578251825591602001919060010190610be3565b5b509050610c0c9190610c9a565b5090565b828054828255906000526020600020908101928215610c89579160200282015b82811115610c885782518260006101000a81548173ffffffffffffffffffffffffffffffffffffffff021916908373ffffffffffffffffffffffffffffffffffffffff16021790555091602001919060010190610c30565b5b509050610c969190610cbf565b5090565b610cbc91905b80821115610cb8576000816000905550600101610ca0565b5090565b90565b610cff91905b80821115610cfb57600081816101000a81549073ffffffffffffffffffffffffffffffffffffffff021916905550600101610cc5565b5090565b90565b600082601f830112610d1357600080fd5b8135610d26610d21826112ee565b6112c1565b91508082526020830160208301858383011115610d4257600080fd5b610d4d838284611415565b50505092915050565b600081359050610d6581611475565b92915050565b600060208284031215610d7d57600080fd5b6000610d8b84828501610d56565b91505092915050565b600080600060608486031215610da957600080fd5b6000610db786828701610d56565b935050602084013567ffffffffffffffff811115610dd457600080fd5b610de086828701610d02565b9250506040610df186828701610d56565b9150509250925092565b6000610e078383610e2b565b60208301905092915050565b6000610e1f8383611102565b60208301905092915050565b610e34816113a8565b82525050565b610e43816113a8565b82525050565b6000610e548261133a565b610e5e8185611375565b9350610e698361131a565b8060005b83811015610e9a578151610e818882610dfb565b9750610e8c8361135b565b925050600181019050610e6d565b5085935050505092915050565b6000610eb282611345565b610ebc8185611386565b9350610ec78361132a565b8060005b83811015610ef8578151610edf8882610e13565b9750610eea83611368565b925050600181019050610ecb565b5085935050505092915050565b610f0e816113ba565b82525050565b610f1d81611403565b82525050565b6000610f2e82611350565b610f388185611397565b9350610f48818560208601611424565b610f5181611457565b840191505092915050565b6000610f69601a83611397565b91507f436f75727365206973206174204d6178204361706163697479210000000000006000830152602082019050919050565b6000610fa9601783611397565b91507f436f7572736520697320616c7265616479204f70656e210000000000000000006000830152602082019050919050565b6000610fe9601183611397565b91507f436f7572736520697320436c6f736564210000000000000000000000000000006000830152602082019050919050565b6000611029601383611397565b91507f596f7520617265206e6f74207468652053522e000000000000000000000000006000830152602082019050919050565b6000611069601983611397565b91507f436f7572736520697320616c726561647920436c6f73656421000000000000006000830152602082019050919050565b60006110a9602e83611397565b91507f53747564656e74205265736f75726365732063616e6e6f74207265676973746560008301527f7220746f206120636f75727365210000000000000000000000000000000000006020830152604082019050919050565b61110b816113f9565b82525050565b61111a816113f9565b82525050565b60006020820190506111356000830184610e3a565b92915050565b600060208201905081810360008301526111558184610e49565b905092915050565b600060208201905081810360008301526111778184610ea7565b905092915050565b60006020820190506111946000830184610f05565b92915050565b60006080820190506111af6000830187610f14565b81810360208301526111c18186610f23565b90506111d06040830185611111565b6111dd6060830184611111565b95945050505050565b600060208201905081810360008301526111ff81610f5c565b9050919050565b6000602082019050818103600083015261121f81610f9c565b9050919050565b6000602082019050818103600083015261123f81610fdc565b9050919050565b6000602082019050818103600083015261125f8161101c565b9050919050565b6000602082019050818103600083015261127f8161105c565b9050919050565b6000602082019050818103600083015261129f8161109c565b9050919050565b60006020820190506112bb6000830184611111565b92915050565b6000604051905081810181811067ffffffffffffffff821117156112e457600080fd5b8060405250919050565b600067ffffffffffffffff82111561130557600080fd5b601f19601f8301169050602081019050919050565b6000819050602082019050919050565b6000819050602082019050919050565b600081519050919050565b600081519050919050565b600081519050919050565b6000602082019050919050565b6000602082019050919050565b600082825260208201905092915050565b600082825260208201905092915050565b600082825260208201905092915050565b60006113b3826113d9565b9050919050565b60008115159050919050565b60008190506113d482611468565b919050565b600073ffffffffffffffffffffffffffffffffffffffff82169050919050565b6000819050919050565b600061140e826113c6565b9050919050565b82818337600083830152505050565b60005b83811015611442578082015181840152602081019050611427565b83811115611451576000848401525b50505050565b6000601f19601f8301169050919050565b6002811061147257fe5b50565b61147e816113f9565b811461148957600080fd5b5056fea2646970667358221220ba5ebf54082316d9fcf969734da21a97869a047ae2c0ddeaa078266c7e3cbf9864736f6c63430006010033",
  "source": "pragma solidity ^0.6.0;\r\npragma experimental ABIEncoderV2;\r\n\r\nimport \"./StudentResources.sol\";\r\n\r\ncontract RegisterSU is StudentResources {\r\n    enum CourseRegistrationStatus {\r\n        Open,\r\n        Closed\r\n    }\r\n\r\n    struct Course {\r\n        RegisterSU.CourseRegistrationStatus _status;\r\n        string _courseCode;\r\n        uint256 _courseMaxCapacity;\r\n        uint256 _courseCapacity;\r\n        address[] _students;\r\n    }\r\n\r\n    mapping(uint256 => Course) public courses;\r\n    uint256[] public courseList;\r\n    uint256[] public myCourses;\r\n\r\n    function createCourse(\r\n        uint256 _id,\r\n        string memory _courseCode,\r\n        uint256 _courseMaxCapacity\r\n    ) public onlySR {\r\n        courses[_id]._courseCode = _courseCode;\r\n        courses[_id]._courseMaxCapacity = _courseMaxCapacity;\r\n\r\n        courses[_id]._courseCapacity = 0;\r\n        courses[_id]._status = CourseRegistrationStatus.Closed;\r\n        courses[_id]._students = new address[](0);\r\n\r\n        courseList.push(_id);\r\n    }\r\n\r\n    function openCourse(uint256 _courseIndex) public onlySR {\r\n        require(\r\n            courses[_courseIndex]._status != CourseRegistrationStatus.Open,\r\n            \"Course is already Open!\"\r\n        );\r\n\r\n        courses[_courseIndex]._status = CourseRegistrationStatus.Open;\r\n    }\r\n\r\n    function closeCourse(uint256 _courseIndex) public onlySR {\r\n        require(\r\n            courses[_courseIndex]._status != CourseRegistrationStatus.Closed,\r\n            \"Course is already Closed!\"\r\n        );\r\n\r\n        courses[_courseIndex]._status = CourseRegistrationStatus.Closed;\r\n    }\r\n\r\n    function registerCourse(uint256 _courseIndex) public {\r\n        require(!isSR(), \"Student Resources cannot register to a course!\");\r\n        require(\r\n            courses[_courseIndex]._status != CourseRegistrationStatus.Closed,\r\n            \"Course is Closed!\"\r\n        );\r\n        require(\r\n            courses[_courseIndex]._courseCapacity <\r\n                courses[_courseIndex]._courseMaxCapacity,\r\n            \"Course is at Max Capacity!\"\r\n        );\r\n\r\n        courses[_courseIndex]._students.push(msg.sender);\r\n        courses[_courseIndex]._courseCapacity += 1;\r\n    }\r\n\r\n    function getCourseStudents(uint256 _courseIndex)\r\n        public\r\n        view\r\n        onlySR\r\n        returns (address[] memory)\r\n    {\r\n        return courses[_courseIndex]._students;\r\n    }\r\n\r\n    function setMyCourses() internal {\r\n        for (uint256 i = 0; i < courseList.length; i += 1) {\r\n            for (\r\n                uint256 j = 0;\r\n                j < courses[courseList[i]]._students.length;\r\n                j += 1\r\n            ) {\r\n                if (courses[courseList[i]]._students[j] == msg.sender) {\r\n                    myCourses.push(courseList[i]);\r\n                }\r\n            }\r\n        }\r\n    }\r\n\r\n    function getMyCourses() public returns (uint256[] memory) {\r\n        setMyCourses();\r\n        return myCourses;\r\n    }\r\n}\r\n",
  "sourcePath": "C:\\Users\\hp\\Documents\\BcProject\\RegisterSU\\contracts\\RegisterSU.sol",
  "compiler": {
    "name": "solc",
    "version": "0.6.1+commit.e6f7d5a4.Emscripten.clang"
  },
  "schemaVersion": "3.4.7",
  "updatedAt": "2022-05-16T16:46:14.646Z",
  "networkType": "ethereum",
  "devdoc": {
    "methods": {
      "isSR()": {
        "details": "Returns true if the caller is the current owner."
      }
    }
  },
  "userdoc": {
    "methods": {}
  }
}